:020000040800F2
:10000000000003205D060008792300087B23000818
:100010007D2300087F2300088123000800000000E2
:10002000000000000000000000000000D176000881
:10003000832300080000000061770008856F000836
:10004000AD060008AD060008AD060008AD060008C4
:10005000AD060008AD060008AD060008AD060008B4
:10006000AD060008AD060008AD060008AD060008A4
:10007000AD060008AD060008AD060008AD06000894
:10008000AD060008AD060008AD060008AD06000884
:10009000AD060008AD060008AD060008AD06000874
:1000A000AD060008AD060008AD060008AD06000864
:1000B000AD060008AD060008AD060008AD06000854
:1000C000AD060008AD060008AD060008AD06000844
:1000D000AD060008AD060008AD060008AD06000834
:1000E000AD060008AD060008AD060008AD06000824
:1000F000AD060008AD060008AD060008AD06000814
:10010000AD060008AD060008AD060008AD06000803
:10011000AD060008AD06000885230008AD060008FE
:10012000AD060008AD060008AD060008AD060008E3
:10013000AD060008AD060008AD060008AD060008D3
:10014000AD060008AD060008AD060008AD060008C3
:10015000AD060008AD060008AD060008AD060008B3
:10016000AD060008AD060008AD060008AD060008A3
:10017000AD060008AD060008AD060008000000004E
:10018000AD060008AD060008AD060008AD06000883
:10019000AD060008AD060008AD060008AD06000873
:0C01A00091230008AD0600089D23000814
:1001B00010B5054C237833B9044B13B10448AFF3A1
:1001C00000800123237010BD800300200000000088
:1001D000343E020808B5034B1BB103490348AFF393
:1001E000008008BD0000000084030020343E0208A7
:1001F00001F0FF01102A2BDB10F0070F08D010F8D8
:10020000013B013A8B422DD010F0070F42B3F6D1DB
:10021000F0B441EA012141EA014122F007047FF0F4
:1002200000070023F0E80256083C85EA010586EA4B
:10023000010685FA47F5A3FA87F586FA47F6A5FA87
:1002400087F68EB9EED1F0BC01F0FF0102F0070293
:1002500032B110F8013B013A83EA010313B1F8D13E
:100260000020704701387047002D06BF354603381F
:10027000073815F0010F07D1013015F4807F02BF58
:10028000013015F4C03F0130F0BC0138704700BFA9
:100290007BB972B90029BEBF00204FF0004106E0D3
:1002A00008BF00281CBF6FF000414FF0FF3000F086
:1002B000D3B9ADF1080C6DE904CE002909DB002BA0
:1002C0001ADB00F04DF8DDF804E0DDE9022304B0AC
:1002D0007047404261EB4101002B1BDB00F040F80E
:1002E000DDF804E0DDE9022304B0404261EB4101A6
:1002F000524263EB43037047524263EB430300F007
:100300002FF8DDF804E0DDE9022304B0404261EBA0
:1003100041017047524263EB430300F021F8DDF8DE
:1003200004E0DDE9022304B0524263EB430370476B
:1003300053B94AB9002908BF00281CBF4FF0FF314C
:100340004FF0FF3000F088B9ADF1080C6DE904CE34
:1003500000F006F8DDF804E0DDE9022304B07047A0
:100360002DE9F047089D8E4604468846002B4AD169
:100370008A42174662D9B2FA82F64EB1C6F120031C
:1003800001FA06F820FA03F3B74043EA0808B4403C
:100390004FEA174E1FFA87FCB8FBFEF1230C0EFB49
:1003A000118843EA084301FB0CF29A4209D9FB1871
:1003B00001F1FF3080F0EA809A4240F2E780023992
:1003C0003B449A1AA3B2B2FBFEF00EFB102243EAA2
:1003D000024300FB0CFC9C4509D9FB1800F1FF32DD
:1003E00080F0D6809C4540F2D3803B44023840EAFE
:1003F0000140A3EB0C0300211DB1F3400022C5E92D
:100400000032BDE8F0878B4205D90DB1C5E9000186
:1004100000210846F5E7B3FA83F1002946D1734578
:1004200002D3824200F20581841A6EEB030201209E
:100430009046002DE5D0C5E90048E2E7002A00F02B
:100440009080B2FA82F6002E40F0A4808A1A030C43
:100450004FEA174E80B2BCB20121B2FBFEFC0EFB8C
:100460001C2243EA024304FB0CF29A4207D9FB1810
:100470000CF1FF3802D29A4200F2E080C4469B1A87
:10048000B3FBFEF20EFB123340EA034302FB04F41B
:100490009C4207D9FB1802F1FF3002D29C4200F2C5
:1004A000CA8002461B1B42EA0C40A5E7C1F12006A8
:1004B0008B4022FA06F71F430EFA01F420FA06F3E6
:1004C0002EFA06FE4FEA1749234300FA01F81FFAF5
:1004D00087FCBEFBF9F01C0C09FB10EE44EA0E444D
:1004E00000FB0CFEA64502FA01F209D93C1900F105
:1004F000FF3A80F09C80A64540F2998002383C4447
:10050000A4EB0E041FFA83FEB4FBF9F309FB1344BA
:100510004EEA044403FB0CFCA44508D93C1903F142
:10052000FF3E80F08280A4457FD9023B3C4443EAF1
:100530000040A4EB0C04A0FB02EC64457346E146CA
:1005400062D35FD05DB1B8EB030264EB090404FA37
:1005500006F622FA01F31E43CC40C5E900640021EF
:100560004FE7B1FBF2FC010C41EA0E4180B240EAD8
:1005700001423B4638463C46B846BE462026B1FBC3
:10058000F7F1A2EB080241EA0C4166E7014618E7E1
:1005900010462CE7C6F120022EFA02F3B740B14014
:1005A00020FA02F24FEA174E0A43B3FBFEF8BCB240
:1005B0000EFB1833110C41EA034108FB04F9B0406B
:1005C00089454FEA104380B23ED9791808F1FF3CC3
:1005D00001D289451FD8A1EB0901B1FBFEF909FB46
:1005E00004F80EFB191192B242EA0142424529D2A7
:1005F000BA1809F1FF31C4D24245C2D2A9F10201B1
:100600003A44BEE7F0459DD2BEEB02036CEB070C0B
:100610000138E14696E7A7EB09094944A8F1020C25
:10062000B1FBFEF909FB04F8DBE773467FE75046B0
:1006300066E70846FDE63B44023A33E7ACF1020CBC
:100640003B441CE749469CE7A1EB0901C446B1FBCA
:10065000FEF909FB04F8C4E7704700BFDFF834D0A7
:10066000002103E00C4B5B58435004310B480C4B0A
:1006700042189A42F6D30B4A02E0002342F8043BA8
:10068000094B9A42F9D304F0FFF922F065FE01F01C
:10069000C7F8704700000320C07C05080000002058
:1006A0006C010020800300204C420120FEE77047CF
:1006B00008B500F0B9FDBDE8084000F03DBD00F010
:1006C000B5BD704710B50421044621F059FC204601
:1006D00010BD000038B50C4B0C4C18800C4B822020
:1006E00019806368984740F6110398420AD1094D72
:1006F00023682C60822098472B688220DB6898470B
:10070000002038BD0120FCE7A60300205400002093
:10071000A4030020A80300204FF4A071F020FFF7ED
:10072000D9BF0000F7B5394D2B6804461B698220FC
:100730009847208000284ED02B680DF106025B6997
:1007400001A982209847324B1B78002B4BD0BDF873
:10075000062040F674639A423FD9ADF80630BDF8E2
:1007600006209B1A9BB20A2B42D90B22B3FBF2F351
:10077000284A1288934201D9013A93B2BDF8042065
:10078000254840F6B8318A4234D8C2F571620E323B
:10079000016892B20F25B2FBF5F2204D2D88AA42D6
:1007A00084BF05F1FF35AAB28A4215468EB22AD916
:1007B000921B91B21A4E3768BB42BAB28CBF9A1ADA
:1007C000D21A92B211440529C4BF05603360036890
:1007D00063803368A38003B0F0BDB32A9CBFB4220A
:1007E000ADF80620BBE7BDF80630A3F5B473B9E752
:1007F0000023C3E7C2F56D62083292B20E2A016887
:10080000C8D800252A46891A89B2D3E7A803002050
:10081000D81F0020A4030020A0030020A60300206E
:100820009C03002037B568460D461446FFF77AFF53
:10083000BDF8000030B1BDF802302B60BDF80430C7
:100840002360012003B030BD032821D8DFE800F089
:10085000020B12190F4B1A68B2FA82F252090421E4
:100860000D4804F0A5BB0B4B5A68B2FA82F252094C
:100870000821F5E7074B9A68B2FA82F25209102173
:10088000EEE7044BDA68B2FA82F252092021E7E778
:10089000704700BFAC03002000100240032821D89D
:1008A000DFE800F0020B12190F4B1A68003A18BF6C
:1008B000012204210D4804F07BBB0B4B5A68003A1F
:1008C00018BF01220821F5E7074B9A68003A18BFC4
:1008D00001221021EEE7044BDA68003A18BF01222A
:1008E0002021E7E7704700BFAC0300200010024062
:1008F00003280DD8DFE800F00206080A04210548A5
:1009000004F05BBB0821FAE71021F8E72021F6E7A5
:10091000704700BF0010024008B5032811D8DFE877
:1009200000F0020A0C0E0421074804F03BFB431EB2
:100930005842584108BD0821F6E71021F4E720216C
:10094000F2E70020F3E700BF0010024070B5084D49
:1009500000240126E0B2FFF7DFFF18B12B68012B5E
:1009600018BF2E600134052C05F10405F2D170BDCD
:10097000AC030020012380F8781080F879307047AC
:100980007047002070470000034B4164003918BFD6
:1009900001211970704700BF0B35012070470020FE
:1009A0007047836B0BB10846184770474FF6FF70CE
:1009B0007047406803689B691847704770477047E5
:1009C0007047704710B5044600F046FD23680349A0
:1009D000D3F890302046BDE810401847000000D002
:1009E00008B503680446D3F8843098472368204646
:1009F000DB6F984700F0ECF8236820465B6F984760
:100A0000292001F0D9F900F0E3F8236820465B6F54
:100A10009847F8E710B5044609F00AFD2368204618
:100A2000D3F8BC30BDE81040184700F0F9BC00F026
:100A3000FDBC00F02FBD00F0CFBC00F03FBD00F0CA
:100A400047BD00F0D3BC08F021BF10B58421044697
:100A500021F096FA204610BD10B590F8341090F8A9
:100A600078400C4B8C421A7809D03AB90A4A0B49A3
:100A70001488088810800C8001221A7010BD002A8A
:100A8000FCD0054A05491488088810800C80002293
:100A9000F3E700BF043501200035012002350120B5
:100AA00070B50D46194635B9094B0A4A0A4840F255
:100AB000FF2122F0A1F9C0E90F52084B003A18BFFC
:100AC00001221A700368BDE87040D3F890301847CF
:100AD000A43E0208DC3E02082A3F02080A35012033
:100AE00008B5094B1B888B4203D8084B1B889342DF
:100AF00005D9074B074A0848A32122F07DF9074B87
:100B00001980074B1A8008BD0035012002350120ED
:100B10006F3F0208D23F02082A3F02080635012033
:100B200008350120034690F87A0018B15868036828
:100B30001B68184770470000012108B500220846CD
:100B400006F0C2FA0A4B186028B90A4B0A4A282153
:100B50000A4822F051F900220421012006F05CFB32
:100B6000074B186018B9074B034A2C21F0E708BD62
:100B7000C0030020154002085E4002088D400208B4
:100B8000BC030020E2400208024B4FF0FF3118681E
:100B900006F0E4BAC0030020014B186806F00ABB57
:100BA000C0030020024B0021186806F0D7BA00BF2E
:100BB000C0030020FFF7F0BF03480449006800238A
:100BC0001A4606F064BB00BFBC03002004000020EE
:100BD00013B5084C00231A4601A9206806F088FBCB
:100BE00020684FF0FF33002201A906F081FB02B01C
:100BF00010BD00BFBC03002003685B6C18470120D8
:100C0000704703689B6A1847FEE740F2EF30704771
:100C1000054B0360054B4FF08062C3F88820BFF39B
:100C20004F8FBFF36F8F7047D44C020800E100E094
:100C300010B504464FF45A61FFF7EAFF204621F051
:100C40009FF9204610BD000082B0002301930E4B97
:100C50001A6B42F400021A631A6B02F4000201924A
:100C6000019A1A6942F400021A611A6922F4000218
:100C70001A61064B064A1A61064A5A61064B4FF042
:100C800080629A6002B07047003802406C210020F8
:100C9000E90E0008090C000800E100E008B50A2888
:100CA00009D8DFE800F006100E0808080810101038
:100CB0001000022008BD054B054A0648902122F08D
:100CC0009BF80020F6E70120F4E700BF244102086A
:100CD0003F4102088A41020838B50C46887FFFF779
:100CE000DDFFA58AE28A164B2169586342EA054274
:100CF0005A64628BD963521B1A642568082D0ED181
:100D00009A611A615862207F0E4A42EA0062DA61F3
:100D1000E2681A620C4A5961D9601A6038BD002233
:100D2000D8611A61E1680A0A480902F4784200F4BD
:100D3000FC600243C1F3C4010A439A63034AECE72F
:100D400000B002400900010001230200012303005A
:100D500008B50B280BD8DFE800F00612100A0A0AC3
:100D60000A0808080808022008BD0520FCE7054B12
:100D7000054A06486F2122F03FF80020F4E70120E1
:100D8000F2E700BF24410208DD4102088A4102085F
:100D90002DE9F04191F81D800C464046FFF7D8FF41
:100DA000A77F05463846FFF7D3FF06463846FFF7CC
:100DB00075FFA18A628B444B521A1A649A61228B86
:100DC000521A1A61E28A586342EA01425A6421695E
:100DD0006268D963DA602068802828D0227F0FD823
:100DE000202867D0402865D004281AD0364B45EA21
:100DF000026545F40035B845DD6161D0334A44E011
:100E0000B0F5807F04D0B0F5007FEFD1304800E02E
:100E1000304840EA0262DA61E2681A625E62596151
:100E200032E045EA026242F40032DA61F6E7A06895
:100E3000021DDA62227F45EA026545F40035DD6174
:100E40005E625961017841B1012921D0224B234AC8
:100E500023484FF48D7121F0CFFFDA69418822F4E5
:100E60007F42013922F0100242EA0122DA610121B7
:100E7000154BDA6942F02002DA61DA699206FCD495
:100E800010229A600029B9D0164A1A60BDE8F08194
:100E9000B2F1FF01DA69408822F47F4200F1FF30AD
:100EA00022F0100242EA002242F0100218BF012193
:100EB000DA61DDE745EA0262034B42F40032B4E74F
:100EC00042F20132E1E700BF00B00240012301001D
:100ED000090002000A0002002742020841420208FB
:100EE0008A41020801230200024B1B68586803680C
:100EF0005B6918470C35012070B5044625460A4B3E
:100F00000C30002660602672667245F8203B602235
:100F1000294609F0E3FB04F55A63EE6024359D424F
:100F2000FBD1204670BD00BFD44C0208034B1A68A9
:100F3000D207FCD423229A60704700BF00B0024061
:100F40007047000030B50F4C2568ED07FCD4232511
:100F50000904A56041F001010225FF2B656361646E
:100F6000E0630AD00849656241EA0363E361074B25
:100F700022626061E060236030BDE561039BA36392
:100F8000034BF8E700B00240090001000100020035
:100F90000100030030B50E4C2568ED07FCD4232575
:100FA0001204A56042F001020225FF2B6563626412
:100FB000E063E16008D01B0643F00213E361054BD8
:100FC00065626061236030BD034BE3610123F9E793
:100FD00000B0024001000200020002FF30B50B4CDD
:100FE0002568ED07FCD4232512041B06A56043F4F5
:100FF0000033022542F0010265636264E063E16050
:10100000E361034B65626061236030BD00B0024064
:1010100001000200012070474020704700EB811062
:101020000830704700EB811008307047012070478E
:1010300040F68820704740F6882303FB0100083003
:10104000704740F6882303FB0100083070470120F9
:1010500070471020704700EB01100830704700EB1C
:10106000011008307047084601F004BC10B5034B6E
:101070000360044608F061F9204610BD8C4D02085B
:1010800010B50446FFF7F2FF2046482120F078FF14
:10109000204610BD10B5034B0360044608F04DF91F
:1010A000204610BD584D020810B50446FFF7F2FF68
:1010B00020464FF4296120F063FF204610BD000058
:1010C00010B5034B0360044608F037F9204610BD05
:1010D000244D020810B50446FFF7F2FF2046182100
:1010E00020F04EFF204610BD10B5084B03600446AB
:1010F00000F6BC20FFF7BAFF04F12C00FFF7CAFF8F
:1011000004F11400FFF7DCFF204610BDC04D0208BB
:1011100008B50248FFF7E8FF08BD00BF9C12002099
:1011200010B50446FFF7E0FF204640F6644120F08A
:1011300027FF204610BD00002DE9F34101F0A4F97E
:10114000054601F0A5F9002401462346284622461B
:10115000009411F063FE274B274A1A60204602F0E4
:101160003FFA264D264B274A27489A6011F0BEFDCC
:101170002B68BFF35B8FDB0735D4284620F002FFD6
:1011800088B3224C224B236004F6083604F1140085
:1011900004F12C0804F6BC276060C4F80880E760FE
:1011A000266108F0CBF81B4B6361404608F0C6F897
:1011B000194BE362384608F0C1F8184BC4F8BC3A42
:1011C00004F6043002F014FE224604F604313046E0
:1011D00002F080FA304601F04DFB114821F02AFE62
:1011E000284620F0DBFE0F4802B0BDE8F041FFF7D3
:1011F000E9BB00BF70350120480400209812002090
:10120000680400204C040020080000209C120020EC
:10121000C04D0208244D0208584D02088C4D0208AA
:1012200011110008C4030020704700000148FFF7B7
:10123000D7BB00BFC403002070B5264E264C274DF7
:10124000274B23603046FFF757FE284616F0ECFE8A
:1012500024480FF0D9FA244B2448DC6000224FF4D4
:101260008071C3E9121222491A86C3E91A12214970
:1012700083F85820C3E91E011F49C3F880101F4995
:101280001F480B60F021C3E90422C3E90622C3E929
:101290000822C3E90A22C3E90E22C3E91022C3E9E6
:1012A0001422C3E917225A6683F870205A67C3E9EB
:1012B000016501801348018013484FF4A07101803B
:1012C0001248018012490A70012283F83420114A21
:1012D0001A6070BDF40400209412002068040020FD
:1012E000943E02084C040020C403002000000101C9
:1012F00001000001000450001A0014000C35012008
:101300000035012006350120023501200835012075
:1013100004350120E84B02080148FFF779BC00BF03
:10132000F40400200020704781807047C18070471E
:10133000018170474181704770477047704770471F
:10134000704710B4C4880368121B84885B6D091B46
:1013500012B25DF8044B09B218474FF6FF73838150
:101360004FF0FF3303621368C361106070470020C1
:1013700070478B88838001207047704780F8261063
:10138000704790F82600704710B50022B1F9084068
:10139000B1F90A10028042808480C18010BD002211
:1013A000028042808280C28070470177704780ED62
:1013B000080A704780F82410704780F8251070479D
:1013C00001207047983070478C30704784307047E8
:1013D0007047704770470000034B902283F85A23F0
:1013E00083F85823704700BF00E100E0094A0A492A
:1013F000D3680A48C3F30A03013B9BB20B8011690F
:10140000C1F30A01013901801364536B43F00103F6
:101410005363704700680140021F0020001F002036
:10142000014BD3F8AC00704700680140024B012229
:10143000C3F8AC105A6270470068014010B52C2107
:10144000044620F09DFD204610BD10B5BC21044689
:1014500020F096FD204610BD70B5044608F06BFAEA
:1014600023689D6E0DF01EFF01462046A8472368A5
:10147000054AD3F88C502046AC460023BDE87040A6
:10148000A2F51631604700BF00B004D008F03ABAA8
:1014900008F044BA08F000BA08F06FBB90F82520B5
:1014A00012B103685B691847704790F825201AB19C
:1014B00090F8242002B1186070470000034B4FF0F1
:1014C00080629A604FF080729A60704700E100E09D
:1014D000084B4FF08062C3F88820BFF34F8FBFF3F3
:1014E0006F8F4FF08072C3F88820BFF34F8FBFF328
:1014F0006F8F704700E100E070B50023124E8380CB
:10150000124B0360336893F8582005460AB1D86C33
:1015100000B998680368DB6A98473368B0FA80F4CA
:10152000D86C640930B10368DB6A9847002808BFAB
:1015300044F001042CB9064B064A07482C2121F03F
:101540005BFC284670BD00BF0C350120D44D02085D
:101550007F420208DD4202081643020870B5254E9C
:101560003568BFF35B8F15F0010540D1304620F0A0
:1015700009FD00283BD0204C204B256104F13400AC
:10158000C4E90035C4E90255E584A562A5850FF0DC
:1015900020FC04F158000AF057FD194BA3652046C2
:1015A000184B40F8843BFFF7A7FF174BC4F8843073
:1015B0002433C4F88C304FF4C803C4E92835002321
:1015C000C4F8AC30C4F8B030C4F8B430C4F8B830A3
:1015D0000E480F4BC4F89050C4F89C50C4F8A85063
:1015E000C4F8983021F026FC304620F0D7FC0248A1
:1015F00070BD00BF041F0020081F002074560208A1
:10160000F44D02086C4E020828560208D513000853
:101610000856020838B5184C23685BB3174B184AB4
:101620001B6C11888B4216D1164B198804F0C8FA2E
:10163000236893F86A200025013283F86A2083F832
:101640007C50FFF7B9FA206808F0F2FE2846BDE8A2
:101650003840FFF7F9B804F0B3FA2468236820464D
:101660001B6A9847012384F87C300020BDE838408D
:10167000FFF714B938BD00BF0C35012000680140E8
:10168000021F0020001F002007B5064BADF8060022
:101690001B68054801220DF1060105F031F803B081
:1016A0005DF804FB0C00002018200020F7B5304E38
:1016B000304C306805F04CFE054678B904212046D0
:1016C00003F070FC002814BF4E2352238DF8043021
:1016D000306864232A4601A905F0D9FD264F3868F1
:1016E00005F036FE08210546204603F05BFC024665
:1016F00058B9002D14BF4E234C238DF8053038689F
:1017000064230DF1050105F0C2FD1C4F386805F09A
:101710001FFE054680B91021204603F043FC002837
:1017200014BF4E2355238DF80630386864232A46AB
:101730000DF1060105F0ABFD114F386805F008FE0C
:10174000054680B92021204603F02CFC002814BF58
:101750004E2344238DF80730386864232A460DF160
:10176000070105F094FD642005F0A2FCA1E700BF8D
:10177000D41F002000100240D01F0020CC1F0020EA
:10178000C81F002030B595B0102200210AA821F012
:101790003AFD1422002103A821F035FD00241E4B40
:1017A00001941A6C42F080521A641B6C03F080534F
:1017B0000193019B194B02941A6842F440421A604B
:1017C0001B6803F4404302930122029B4FF48033D1
:1017D000CDE9082302254FF480030821CDE90E53FB
:1017E0004FF4B473CDE9101308A804231393129592
:1017F00004F03EFA04F002FA0F23CDE903354FF46A
:10180000A0504FF48053CDE90603052103A80594A9
:1018100004F00AFC15B030BD0038024000700040F2
:1018200080B59AB003F03EF9FFF7ACFF1422002117
:101830000DA821F0E8FC0024C84B00941A6BC8489E
:1018400042F010021A631A6B02F010020092009A22
:1018500001941A6B42F020021A631A6B02F0200204
:101860000192019A02941A6B42F080021A631A6B79
:1018700002F080020292029A03941A6B42F0040270
:101880001A631A6B02F004020392039A04941A6B0F
:1018900042F001021A631A6B02F001020492049AE8
:1018A00005941A6B42F002021A631A6B02F00202EC
:1018B0000592059A06941A6B42F040021A631A6B5D
:1018C00002F040020692069A07941A6B42F0080250
:1018D0001A631B6B03F00803224607933C21079B06
:1018E00003F066FB9F480122022103F061FB2246C0
:1018F0009C48042103F05CFB22469B484FF4405176
:1019000003F056FB01263C23CDE90D3694480F9495
:1019100003230DA90227109303F060FA91480DA943
:10192000CDE90D760425CDE90F4403F057FA8D4833
:101930000DA9CDE90D56CDE90F4703F04FFA4FF44D
:10194000405389480DA9CDE90D36CDE90F4703F085
:1019500045FA86480F940DA9CDE90D6403F03EFACF
:101960007F480DA9CDE90D54CDE90F6403F036FA97
:1019700008237B487E4D0DA9CDE90D34CDE90F64D8
:101980004FF0100803F02AFA75480DA9CDE90D842F
:10199000CDE90F6403F022FA0DA920237048CDE9A8
:1019A0000D34CDE90F6403F019FA7248724B0360ED
:1019B00003F00AF9DFF8E0E1704B2C62C5E900E3BF
:1019C00028464FF48043C5E90434C5E90244C5E91B
:1019D000064403F0FBFC4146284603F03FFFDFF8D6
:1019E000BC8121462846664D03F057FF4FF48273B1
:1019F000C5E900834FF400791823C5E9069328460A
:101A00000A23C5E90244C5E90444C5E90844AC62B7
:101A1000EB6204F019FE8F232246394651488DF8B7
:101A200024308DF8344003F0C3FA32464FF47A7311
:101A300009A9284604F064FE4FF47A7332460DA9D2
:101A4000284605F009F83246394646484D4D03F020
:101A5000AFFA9DF83430D32B04BF4B4B1E704B4B69
:101A60000126C5E90036102240230024C5E90423DD
:101A70004FF4C073C5E906344FF40063C5E9083478
:101A80004FF400534FF002084FF00409AB624FF0DF
:101A9000030A07230DA928460827CDE90D83CDE9C0
:101AA0000F93C5E90249CDE911A8CDF84C8004F0A7
:101AB000AFFC4FF6FF7209A92846CDE90A760894D3
:101AC00009960C9404F0C4FC304603F017F84FF666
:101AD000FF7209A92846CDE90987CDE90B6404F016
:101AE000B7FC4FF6FF7209A92846CDE909A7CDE951
:101AF0000B9404F0ADFC4FF40C730893089B0C930B
:101B00004FF6FF7209A92846CDE909970B9604F014
:101B10009FFC40F26A51284604F0B8FC34220DEBD9
:101B20000200214621F06FFB194D1A4B2C61C5E9CB
:101B300000340923C5E905361D23C5E9073A40F2FB
:101B40000D1140F24313C5E9091340F2171040F29A
:101B50004713C5E90B03284622E000BF00380240C6
:101B60000010024000080240000C02400000024049
:101B700018210020AC21002000300240A086010086
:101B800018200020E41F0020D81F0020400100A0E2
:101B90007020002000680140005C004000500140BF
:101BA000C5E90244AC8685F8364003F011FFFF21F9
:101BB0004FF4806CF022CDE912140521CDE914C157
:101BC0004FF4A0730DA9CDE90E24CDE916422846A5
:101BD00022462B4D1893CDE910380D94ADF8644092
:101BE0008DF8664003F0BFFF264B2B601B689847BB
:101BF0002B68254DDB689847244B2846C5E90034FF
:101C0000C5E90284C5E90A48C5E90C4402F0ECFFC5
:101C10003146284603F09EF8FEF74AFDFEF747FDE1
:101C200005F0BEF91A4A3146384605F0F5FA194B67
:101C3000194A18603146384605F0EEFA174B184A33
:101C400018603146384605F0E7FA164B164A186018
:101C50003146384605F0E0FA144B154A1860214623
:101C6000144805F0C9F9144B144A18602146144869
:101C700005F0C2F9134B186005F0A4F9FEE700BFA8
:101C8000C41F00201C0000206C21002000B0024076
:101C9000F84E0208D41F0020E04E0208D01F00209A
:101CA000C84E0208CC1F0020B04E0208C81F0020FA
:101CB000344F0208AD160008E01F0020104F020844
:101CC000BF060008DC1F0020704770477FB5094B36
:101CD0008DF817201B6802930DF117020123009263
:101CE00001930A460146044803F018FC07B05DF86A
:101CF00004FB00BF10000020182100207FB5002346
:101D00008DF81730084B1B6802930A4601230DF12A
:101D10001701009101930146044803F08FFC9DF8E0
:101D2000170007B05DF804FB100000201821002008
:101D30001FB5084C24680092CDE901340A460123FE
:101D40000146054803F07AFC003818BF012004B0B2
:101D500010BD00BF100000201821002002F0CEBEF0
:101D600010B5064C00222046042103F021F920463C
:101D70000122BDE81040042103F01AB90008024016
:101D800038B50B4D044601220A484FF4005103F0C8
:101D90000FF900220421284603F00AF92046FFF734
:101DA00073FC28460122BDE83840042103F000B945
:101DB00000080240000C024038B50B4D04460022DA
:101DC0000A484FF4005103F0F3F80022042128469A
:101DD00003F0EEF82046FFF757FC28460122BDE845
:101DE0003840042103F0E4B800080240000C02402F
:101DF000F7B5144E144F05460C4630460022042118
:101E000003F0D6F800224FF40051384603F0D0F822
:101E10002846FFF739FC0D4B0D481B68224601A9E7
:101E200004F01AFE384601224FF40051019C03F0E1
:101E3000BFF830460122042103F0BAF8204603B06F
:101E4000F0BD00BF00080240000C02400C00002062
:101E50001820002002F052BE0268034B9A4201D1C2
:101E600002F03ABE704700BF00100040704700000B
:101E700082B00E4B00220092596C41F480415964AB
:101E8000596C01F48041009100990192196C41F064
:101E9000805119641B6C03F080530193019B0F2147
:101EA0006FF0010002B002F04FBE00BF00380240E8
:101EB0000268094B9A4282B00BD100230193074B71
:101EC0001A6B42F480521A631B6B03F48053019324
:101ED000019B02B0704700BF003002400038024052
:101EE00007B50F4B02689A4216D10022A3F5F043C2
:101EF0000192196B41F4000119631B6B03F4000399
:101F0000019305215A20019B02F01EFE5A2003B0C6
:101F10005DF804EB02F04ABE03B05DF804FB00BFBD
:101F200000B002402DE9F043044689B0142200219C
:101F300003A821F068F92268244B9A4243D1244C2B
:101F4000244800250095236B43F004032363236B8F
:101F500003F004030093009B0195236B43F00103FE
:101F60002363236B03F001030193019B4FF01209DC
:101F70004FF400734FF001080327042603A9CDE9AD
:101F80000339CDE90587079602F028FF4FF48073E7
:101F90001148079603A9CDE90339CDE9058702F079
:101FA0001DFF0295236C43F400032364236C03F4A8
:101FB00000030293029B236A43F400032362236A13
:101FC00023F40003236209B0BDE8F083005C004005
:101FD000003802400008024000000240F0B599B00D
:101FE00004461422002107A821F00DF930220DEB40
:101FF0000200002121F007F922685E4B9A4240F06E
:10200000B78008230C93C0231093042312930CA8C9
:102010004FF40033159304F0CFF808B1FFF726FF13
:10202000554B5648002400945A6C42F080625A6422
:102030005A6C02F080620092009A01941A6B42F08E
:1020400020021A631A6B02F020020192019A029494
:102050001A6B42F001021A631A6B02F0010202923B
:10206000029A03941A6B42F002021A631A6B02F08E
:1020700002020392039A04941A6B42F040021A631C
:102080001A6B02F040020492049A05941A6B42F013
:1020900004021A631A6B02F004020592059A069470
:1020A0001A6B42F008021A631B6B03F008030693D5
:1020B00002250E26069B0B964FF4806307A9CDE9F7
:1020C0000735CDE9094502F089FE41F658032C4851
:1020D0000B9607A9CDE907350927CDE9094502F097
:1020E0007DFE032327480B9707A9CDE90735CDE9E6
:1020F000094502F073FE4FF4706322480B9607A95E
:10210000CDE90735CDE9094502F068FE4FF40C63CF
:102110001D480B9607A9CDE90735CDE9094502F021
:102120005DFEC02319480B9607A9CDE90735CDE917
:10213000094502F053FE082315480B9607A9CDE97F
:102140000735CDE9094502F049FE4FF4A0530E488A
:102150000B9707A9CDE90735CDE9094502F03EFE09
:1021600058202246052102F0EFFC582002F01EFD07
:1021700019B0F0BD00680140003802400014024070
:102180000000024000040240001802400008024023
:10219000000C024010B5044688B01422002103A8A8
:1021A00021F031F82268144B9A4223D103F5684399
:1021B000002101915A6C114842F480125A645A6C01
:1021C00002F480120192019A02911A6B42F02002ED
:1021D0001A631B6B03F020030293029B4FF460729F
:1021E00002230321CDE903230523CDE9061303A927
:1021F00002F0F4FD08B010BD005001400014024090
:102200002DE9F04186B0002303932B4B1C68002C72
:102210004FD14FF00108C3F80080284B00949A6B0F
:10222000274842EA08029A639B6B03EA080300937B
:10223000022703260C25009B01A94FF63F03CDE999
:102240000137CDE9046502F0C9FD1E48059501A9D5
:10225000CDE90187CDE9034602F0C0FD48F2331312
:102260001948059501A9CDE90137CDE9034602F0EA
:10227000B5FD4FF683731548059501A9CDE90137E2
:10228000CDE9034602F0AAFD4CF203731048059510
:1022900001A9CDE90137CDE9034602F09FFD602396
:1022A0000C48059501A9CDE90137CDE9034602F0B7
:1022B00095FD06B0BDE8F081B42100200038024051
:1022C00000140240000802400018024000100240C2
:1022D000000C02400004024070B588B00023029355
:1022E000204B1A6C42F010021A641B6C03F01003AE
:1022F0000293054601A903A8029B03F03FFF069B3A
:102300004BBB03F02BFF184E184B336040F2E73302
:10231000F360174BB0FBF3F3013B736030460023CF
:102320003361B360B36104F067FD044680B93046A1
:1023300004F038FC044658B9362002F037FC0F2D63
:102340000DD822462946362002F0FEFB094B1D60BF
:10235000204608B070BD03F001FF4000D3E7012420
:10236000F6E700BF00380240B8210020001000400E
:1023700040420F00840000207047FEE7FEE7FEE7C2
:10238000FEE77047014804F04BBC00BFB8210020B5
:10239000014803F08BBB00BF70200020014802F011
:1023A0004FBC00BF6C2100200120704708B520F011
:1023B000CDFF162303604FF0FF3008BD08B520F0B5
:1023C000C5FF16230360FEE770B50D4614460E46A2
:1023D000731B9C4201DC204670BDAFF3008006F801
:1023E000010BF5E770B50D4614460E46731B9C4273
:1023F00001DC204670BD16F8010BAFF30080F5E755
:102400004FF0FF3070474FF400534B60002070478F
:1024100001207047002070470A4A116808B503463A
:1024200009B9094911601068694603448B4206D90D
:1024300020F08CFF0C2303604FF0FF3008BD1360C9
:10244000FCE700BF0022002050420120704710B579
:10245000042104461FF094FD204610BD08B5032951
:102460000FD8DFE801F00A02060A01F005F940681A
:1024700008BD01F001F98068FAE701F0FDF8006895
:10248000F6E70020F4E70000004870476C4F0208B0
:102490001120704713B5002451B1036801948DF8E1
:1024A000034001AA9C680DF10303A04702B010BDD0
:1024B0000846FBE7C0897047008A7047C0887047AC
:1024C00080887047807A00F07F007047807AC0096A
:1024D00070470020704700009FED010A704700BF61
:1024E00000000000806A7047704710B5082104465C
:1024F0001FF046FD204610BD7047704700F59873E9
:102500000868496803C37047704770474160704767
:1025100070477047064BC0F84C310023C0F850316B
:1025200000F5A273C0F84801C0F84031704700BF01
:10253000AD2600080123037270477047704710B43E
:10254000C26841685410034601EB6200D20748BFDD
:102550000A599B685DF8044B48BFD3581847034697
:10256000406830B19A681AB9D86800F00100704725
:102570000120704710B50C2104461FF001FD2046D4
:1025800010BD10B5102104461FF0FAFC204610BD06
:1025900010B54FF4AE7104461FF0F2FC204610BD9A
:1025A00010B5402104461FF0EBFC204610BD10B5CD
:1025B0000CF078FE0368BDE81040DB6B18470000A4
:1025C000054B1B7801462BB1406818B103680C31EC
:1025D0005B6E1847704700BF0B350120037A70B55A
:1025E0000546BBB940680368DB69984704463CB9B7
:1025F0006868036805F10C011B6EBDE87040184760
:10260000A1886B8FC91A236820461B6B09B29847B3
:10261000A469ECE770BD10B50446D0F8400158B18C
:102620000368DB68984738B1D4F8400103689B68B9
:1026300098470023C4F8403110BD70B5044690F8A7
:10264000390094F838300130C0B2984284F839002B
:1026500005D901232372002384F8393070BDB4F901
:102660003A2000210FF01EF8C30706D500284FF6C8
:10267000FF73C8BF0123184400B2238AC01AA08781
:1026800060680368DB69984705462DB96068036890
:10269000BDE870405B691847A988A38F19442B686F
:1026A00028461B6B09B29847AD69EEE72DE9F14F5B
:1026B000D0E9556A0746B06803681B6A9847EF2857
:1026C00005D8444B444AA321444820F095FB706848
:1026D00003681B6A98470F2803D8414B3E4AA42140
:1026E000F2E7F06803681B6A98470B2803D83D4B54
:1026F000394AA521E8E70CF0D5FDDFF8F090043069
:102700000CF00EFED9F8000010B10368DB689847A2
:10271000D9F8000010B103681B689847DFF8D08033
:10272000D8F8000010B103685B699847D7F83C01FE
:1027300010B103685B689847D8F8000010B10368CF
:102740001B689847D7F83C0110B103689B6898470D
:10275000F068036800215B6A98474FF0000B224B3A
:10276000C0F804B0044680F808B00360B06803689D
:1027700059465B6A9847054601F02EFB706803686E
:1027800059465B6A98472946064601F005FB331D0A
:10279000C7F83C61C9F80040C8F80050CAF80030DA
:1027A0002B68C6F808A02846DB68EE6398473368B4
:1027B00030461B689847214628460EF06DFF236877
:1027C00020461B69984723685B69204601B0BDE835
:1027D000F04F1847A9430208374402080F45020882
:1027E00056450208F94502084451020854350120B3
:1027F00050350120044B1B6893F858200AB1D86C5F
:1028000000B99868704700BF0C350120F8B517462D
:1028100004460E460CF052FE124B1C60124B236015
:10282000124B0025C4E95135114BC4E953551868C2
:10283000036801219B68C4E94F55C4E95576984760
:10284000284600F0CDFEFFF7D5FF17F096FAFFF708
:10285000D1FF17F00DFBFFF7CDFF17F015FB20465A
:10286000F8BD00BF60350120F0500208D8500208C2
:102870000C350120064BC0F84C310023C0F8503114
:1028800000F5A273C0F84801C0F84031704700BF9E
:10289000AD260008064BC0F84C310023C0F850317B
:1028A00000F5A273C0F84801C0F84031704700BF7E
:1028B000852A0008064BC0F84C310023C0F850317F
:1028C00000F5A273C0F84801C0F84031704700BF5E
:1028D000492900082DE9F04105460026164B4660BF
:1028E000067245F80C3B044628460F4609F054FC96
:1028F000124B84F838701B7884F83960A68723B9A6
:10290000012323722046BDE8F0810D4B0D4FB3F932
:102910000080E368B7F900109B6B26612846984752
:10292000E3684146DB6B28469847284609F0AFFB31
:102930003B885B426387E5E7685102080B3501205D
:1029400002350120003501202DE9F047D0E9556A14
:102950000746B06803681B6A984740F68723984289
:1029600005D8414B414AA321414820F045FA7068FF
:1029700003681B6A98470F2803D83E4B3B4AA421A3
:10298000F2E7F06803681B6A98473F2803D83A4B80
:10299000364AA521E8E70CF085FCDFF8E09004302A
:1029A0000CF0BEFCD9F8000010B10368DB68984752
:1029B000D9F8000010B103681B689847DFF8C080A1
:1029C000D8F8000010B103685B699847D7F83C015C
:1029D00010B103685B689847D8F8000010B103682D
:1029E0001B689847D7F83C0110B103689B6898476B
:1029F000F068036800215B6A984714210446FFF7DA
:102A000069FFB068036800215B6A9847054600F0DB
:102A1000BBFE7068036800215B6A9847294606463A
:102A200000F070FE331DC7F83C61C9F80040C8F8DB
:102A30000050CAF800302B68C6F808A02846DB68AA
:102A4000EE639847336830461B689847214628460E
:102A50000EF022FE236820461B6998472368204613
:102A60005B69BDE8F0471847A94302089C46020885
:102A70000F45020856450208F94502085435012061
:102A8000503501202DE9F047D0E9556A0746B06876
:102A900003681B6A9847EF2805D8414B414AA32198
:102AA000414820F0A9F9706803681B6A98470F280D
:102AB00003D83E4B3B4AA421F2E7F06803681B6A47
:102AC00098473F2803D83A4B364AA521E8E70CF04F
:102AD000E9FBDFF8E09004300CF022FCD9F80000AC
:102AE00010B10368DB689847D9F8000010B103689B
:102AF0001B689847DFF8C080D8F8000010B1036861
:102B00005B699847D7F83C0110B103685B68984748
:102B1000D8F8000010B103681B689847D7F83C014B
:102B200010B103689B689847F068036800215B6AEE
:102B3000984714210446FFF7CDFEB06803680021D2
:102B40005B6A9847054601F047F970680368002101
:102B50005B6A98472946064601F01EF9331DC7F8FF
:102B60003C61C9F80040C8F80050CAF800302B6832
:102B7000C6F808A02846DB68EE63984733683046FD
:102B80001B689847214628460EF086FD236820469C
:102B90001B699847236820465B69BDE8F0471847E2
:102BA000A9430208874702080F4502085645020854
:102BB000F94502085435012050350120704770470F
:102BC00070477047704730B5036885B06D46018126
:102BD000D3F88430014604462846984795E8070014
:102BE0003C3484E8070005B030BD30B5036885B0DB
:102BF0006D464181D3F88430014604462846984703
:102C000095E807003C3484E8070005B030BD002299
:102C1000028042808280C280704780F83610704700
:102C200070B5036804461B6B154698472368294610
:102C300020465B6EBDE87040184700207047806CEE
:102C40007047704770477047704730B4C268446837
:102C50005510034604EB6200D20748BF62599B68D7
:102C600030BC48BFD35818470346406830B19A6813
:102C70001AB9D86800F0010070470120704710B5FC
:102C80004C2104461FF07CF9204610BD10B51021E0
:102C900004461FF075F9204610BD10B54FF40F71B2
:102CA00004461FF06DF9204610BD08B5FEF7F6FB8F
:102CB00008BD0000036870B55E6B124B1B680446CC
:102CC0008DB22BB9104B114A6C21114820F094F8A9
:102CD0001049828D0988914203D80F4B0B4A6D2110
:102CE000F3E713F812200D4B1B6853F8220003681A
:102CF0001B6B9847291A3346204609B2BDE870403D
:102D0000184700BF6435012072480208B448020821
:102D1000EF48020868350120364902086C35012069
:102D20006C30884208B505D10CF0BCFABDE808400B
:102D3000FFF7B0BD08BD00224FF0FF31C0E9002110
:102D40008260704770B5036804461B6B1546984750
:102D50002368294620465B6BBDE87040184770B574
:102D600004461D46BDF91060FFF7ECFF23682946B5
:102D700020469B6B9847236831462046DB6BBDE8B5
:102D8000704018470022C0E90122C0E90322C0E9CF
:102D90000522C0E907224FF480728284014A026052
:102DA000704700BF8C510208F8B5194B018F1B8882
:102DB0008B4206462AD9174B1B682BB9164B174A6C
:102DC00017486C2120F018F813F81120154B1B68D8
:102DD00053F82250144B186800F03EFC2B6807464D
:102DE0009B6B284698472B6804469B6C39462846BF
:102DF00098472B6814FB00F45B6A394628469847CD
:102E0000A4B223181BB2A6F84630F8BD0023FAE797
:102E1000683501206435012072480208B448020870
:102E2000EF4802086C3501207035012038B52622A4
:102E300004460D46002120F0E6F92046FFF7A2FFE8
:102E4000064B23602B88E384FF23204684F8283038
:102E5000294609F044FD204638BD00BF8C580208C1
:102E600010B526220446002120F0CDF92046FFF7B8
:102E700089FF0A4BA3624FF6FF73A3854FF47F02CD
:102E80000023C4E90C32064A226023874FF0FF3248
:102E9000C4E91023E363A364204610BDC8500208B0
:102EA000F45102082DE9F04F044691B0A0460025E8
:102EB0000EF046FA954BE56348F8403B262229463A
:102EC000404620F0A0F94046FFF75CFF904B23649A
:102ED00004F16C0AFF2384F86630A566504609F0B9
:102EE00035FE04F1B4034FF6FF760EA9184605939C
:102EF000ADF83860FFF79AFF04F1E0030EA9184619
:102F00000693ADF83860FFF791FF04F586730EA9BC
:102F100018460793ADF83860FFF788FF04F59C73F7
:102F200018460393FFF79CFF04F5C27304F5E87B92
:102F300018460493FFF794FF0EA95846ADF8386081
:102F4000FFF774FF734BC4F8D031734BC4F8FC51D6
:102F5000C4E98B34714B84F8085201274FF0FF39D4
:102F6000C4E98D354FF4A0732A46C4E980972946F9
:102F700000934046F023261DFFF7F1FE4FF07F43FC
:102F8000A3664146304606F0EBF95046A0222621C2
:102F9000FFF7D8FE0EAA0DA95046ADF83470ADF873
:102FA000387009F06AFB0223A4F8A4305046FFF7FA
:102FB000FBFE04F50B73C4F8943051463046C4E967
:102FC0002A9906F0CDF92A460598DFF854A1D021B8
:102FD000FFF7B8FE4FF00C080598ADF838800EA941
:102FE00009F07DFC0599304606F0BAF92A460698A4
:102FF000AA21FFF7A7FE0698ADF838800EA909F0C0
:103000006EFC0699304606F0ABF92A4607988321F4
:10301000FFF798FE0798ADF838800EA909F05FFC1D
:103020000799304606F09CF92223039800937222F8
:103030002946F023FFF793FED4F838310399D3F8EB
:103040008430C4F868910DF120084046A4F86C5112
:10305000984798E8070004F5BA7383E8070004F579
:103060000373C4F880310398A4F80C520EA9CDF86C
:1030700038A0ADF83C7009F0A3FA0399304606F089
:103080006FF91D2304980093042260230821FFF7A1
:1030900066FED4F884310499D3F88430C4F8B4912E
:1030A0004046A4F8B851984798E8070004F5E07343
:1030B00083E8070004F50873C4F8CC310498A4F839
:1030C00020520EA9CDF838A0ADF83C5009F078FA9E
:1030D0000499304606F044F93A465846D021FFF7A5
:1030E00031FE09225846082109F044F9394658466C
:1030F00009F053F9304684F8F85184F8F5515946EF
:1031000006F02EF9204611B0BDE8F08F9C5202085F
:1031100024580208A857020884520208212D0008EA
:10312000C8500208406A7047806A704770478A88B2
:103130000B8810B5D20A4C88C1699BB251F82200A5
:1031400043EA0443184410BD10B50446BAB1107BDD
:1031500068B1537BD27A1B0203F4E0631A43236AFB
:1031600003EB82031A888A4202D193F9020010BD50
:1031700005D8013880B204330028F3D1F7E70020E6
:10318000F5E710B52C2104461EF0FAFE204610BDCE
:1031900030B58BB00446BDF860500895BDF85C5062
:1031A00007959DF8505006959DF84C5005959DF853
:1031B000485004959DF8445003959DF84050029561
:1031C0009DF83C500195BDF8385000950DF0BEFEBD
:1031D000064B2360159BE361169B2362199B636278
:1031E0001A9BA36220460BB030BD00BFD05202082C
:1031F00070477047704730B4C26844685510034642
:1032000004EB6200D20748BF62599B6830BC48BFDC
:10321000D35818470346406830B19A681AB9D8683D
:1032200000F0010070470120704710B510210446DE
:103230001EF0A6FE204610BD10B5F02104461EF07B
:103240009FFE204610BD6C30884208B505D10CF0B9
:1032500029F8BDE80840FFF72DBB08BD2DE9F7436D
:1032600004460EF06DF8444B2360444B002504F1F6
:103270006C06C4E910354FF48078FF23A4F864800D
:1032800084F86630C4E91255C4E91455C4E91655EA
:10329000E5632566A566304609F058FC04F1B407DD
:1032A0004FF6FF73364AA4F8D880C4F8B420A4F8C7
:1032B000DA3084F8DC3001A93846C4E92E55C4E977
:1032C0003055C4E93255C4E93455ADF8043009F03D
:1032D00006FB2C4BC4E938342B4B04F140082A463A
:1032E000C4E93A3529464046FFF72CFD4046F02117
:1032F000FEF71EF840464FF4A071FEF71BF804F1EC
:1033000004094FF07F43A3664146484606F028F87B
:103310003046C2222321FFF715FD01AA6946304637
:10332000ADF80050ADF8045009F0A7F90323A4F854
:10333000A4303046FFF738FD4FF0FF33C4E92A339D
:1033400004F1E003C4F894303146484606F008F82A
:103350001B2238461421FFF7F5FC102301A938463B
:10336000ADF8043009F0BBFA4846394605F0F8FFDD
:10337000204603B0BDE8F0835053020824580208E9
:103380008C58020838530208473200087047000082
:1033900030B5164D2C6814F001048FB0BFF35B8F6D
:1033A00020D128461EF0EEFDE0B13F230993104BDB
:1033B0000893104B104911480A940122CDE90643A5
:1033C0000423CDE903320A230093CDE90B44CDE970
:1033D00001440594FFF7DCFE09481FF02BFD284649
:1033E0001EF0DCFD05480FB030BD00BF04220020F8
:1033F000206802082C6802082C67020808220020B6
:103400008D3300087047000030B5164D2C6814F05D
:1034100001048FB0BFF35B8F21D128461EF0B2FDAF
:10342000E8B13F230993104B0893104B1049114802
:103430000A94CDE9064301220423CDE90332142383
:1034400000930F22CDE90B44CDE901440594FFF729
:103450009FFE09481FF0EEFC28461EF09FFD054820
:103460000FB030BD34220020246802083068020802
:103470003C6702083822002005340008704700002D
:1034800030B5164D2C6814F001048FB0BFF35B8F7C
:1034900020D128461EF076FDE0B13F230993104B62
:1034A0000893104B104911480A940122CDE90643B4
:1034B0000423CDE9033228230093CDE90B44CDE961
:1034C00001440594FFF764FE09481FF0B3FC284649
:1034D0001EF064FD05480FB030BD00BF642200201F
:1034E0002868020834680208106802086822002070
:1034F0007D34000800207047002070470EB403B5EB
:1035000003AB002153F8042B01930CF09DFF02B094
:103510005DF804EB03B070470CB407B504AB53F887
:10352000042B01930CF090FF03B05DF804EB02B0A4
:1035300070470000436C10B5044673B3038F2BB97A
:10354000184B194AC52119481FF056FCC38E00EBD1
:1035500043035B8C0BB30EF012FE238F012B03D8B9
:10356000134B144ACB21EEE7E28E531C9BB2092B7E
:10357000194688BFA3F10A0104EB410140F63F1050
:10358000498C814209D10A2B04EB420228BF002357
:1035900004EB4303508C588451842046BDE810400E
:1035A0000EF0F0BC744902087D490208284A02085E
:1035B000724A0208804A02080EF0ABBC10B586B011
:1035C00002AC84E806001A460AAB05930193099BF6
:1035D00000932146089B0BF003FA06B010BD0000D3
:1035E00038B518BB124B13481C681349B4B1226894
:1035F00022440260626822440A60A26814440F4BAD
:1036000000221A8000F038F8054600F033F80C4B21
:103610001C600C4B1D600C4B188007E00B4B0360CB
:103620000B4B0B600B4B1C68002CE8D138BD00BF66
:10363000A022002098220020942200209C2200201A
:10364000643501206C350120683501204868020886
:103650003868020878680208044B1B6853F8210098
:10366000034B1B6803EB4000704700BF942200200F
:10367000982200200420704700487047A4220020B0
:1036800010B5FFF7C1FE044C2060FFF7F9FE606043
:10369000FFF77EFEA06010BDA422002010B500241C
:1036A00004600C6014601C6010BD704710B54FF4CE
:1036B000AE7104461EF064FC204610BD10B50446F1
:1036C000D0F8580100F097FB2046BDE810400BF001
:1036D00085BE000010B50446FFF798F8014B236043
:1036E000204610BD84530208704704387047704765
:1036F00010B5102104461EF043FC204610BDA0F179
:103700000400F5E700228260024A0260183242603B
:10371000C1607047D853020870470000134B70B562
:103720000446036040F65C2540F6A406B54217D176
:1037300040F2EC66635960191B682C3D9847B5420E
:10374000F8D140F2DC65635960191B683C3D98472D
:10375000B5F50B7FF7D12046FFF775FA204670BD0F
:10376000635960191B6898472C3DDFE70054020835
:1037700010B50446FFF7D2FF204640F688211EF020
:10378000FFFB204610BD00002DE9F04F05468DB02F
:10379000FFF788FB05F50F79654B2B604FF6FF7837
:1037A00069464846ADF80080FFF740FB05F51A77FB
:1037B000DFF884B105F5E36A3C46002620466946F9
:1037C000ADF80080FFF732FB0123C4F800B0E662D9
:1037D000A4F83080A4F8328084F8343084F835605E
:1037E00084F8366084F8376084F838603C34544597
:1037F000E4D105F50D6A26464FF6FF783046694656
:103800002C36ADF80080FFF711FB5645F6D1564631
:1038100005F688284FF6FF7B304669462C36ADF812
:1038200000B0FFF703FB4645F6D1424E684600F074
:10383000D9FBBDF80430B380BDF91C30039AB383C3
:10384000089BF2603362049A099B32617362059AA5
:103850000A9B726105F10408069AB3626846BDF8D6
:103860002C30B261B38500F0CFFB404605F16C010E
:1038700005F0B7FD404605F59C7105F0B2FD0E233D
:1038800069464846ADF8003009F029F8B6F90E202F
:10389000B6F90C104846FFF755FA4046494605F080
:1038A0005FFD4FF0040804F5DC76212240F241115F
:1038B0003046FFF747FAD4F8B83169461B6EADF8C9
:1038C0000080304698472046212240F24111FFF700
:1038D00039FA236802221B6EADF8002020466946A3
:1038E0002C3498475445DED100240326B4FBF6F36C
:1038F00003EB4303E31A012B13D0022B14D007224E
:103900000621384608F036FD01343846142108F007
:1039100044FD142C07F13C07E8D128460DB0BDE862
:10392000F08F09220821ECE70B220A21E9E700BF0A
:103930000054020874270020A8570208C54B1B78C2
:103940002DE9F74FC44E044643B3C44B1B782BB349
:10395000DFF8308398F8003003BB00F16C05071DD9
:103960002946384605F0FCFC04F59C79B388BC4A2E
:103970000A2104F503700FF0ABF94946384605F00B
:10398000EFFC28460CF08AFE48460CF087FE012327
:1039900088F80030B34B186803F072FBB24FDFF8C1
:1039A000E88238684FF000098DF8039003F0D0FCEE
:1039B00004F50F75E0B14FF0FF3338684A460DF15A
:1039C000030103F095FC9DF80330522B40F0FC807E
:1039D000B6F92810A54800F097FB0F23284601A947
:1039E000ADF8043008F07BFFD8F8000003F0B2FC1B
:1039F000D8F8000003F0ACFCE8B14FF0FF33D8F882
:103A0000000000220DF1030103F072FC9DF8033069
:103A10004C2B40F0E880B16A9448494209B200F06A
:103A200073FB0D23284601A9ADF8043008F057FFB9
:103A3000386803F08FFC8E4FDFF85082386803F04F
:103A400087FCA8B14FF0FF33386800220DF1030165
:103A500003F04EFC9DF80330552B40F0D380834893
:103A6000B6F9281000F052FBD8F8000003F072FC01
:103A7000D8F8000003F06CFCB0B14FF0FF33D8F879
:103A8000000000220DF1030103F032FC9DF8033029
:103A9000442B40F0BF80B16A7448494209B200F03B
:103AA00035FB386803F056FC2846B6F90E20B6F907
:103AB0000C10704FFDF745FC04F5E365A04604F5D6
:103AC0000D6A04F10409B7F91030022B00F0AA8046
:103AD000042B00F0B880012B07D12B68B7F9062022
:103AE0009B6DB7F90410284698472C35554507F1CA
:103AF0001C07E8D1604F04F6882A04F10409B7F9DD
:103B00001030022B00F0C480042B00F0D280012B77
:103B100007D12B68B7F906209B6DB7F9041028462A
:103B200098472C35554507F11C07E8D1534D04F54E
:103B30001A7704F5966A04F10409B5F91030022BDE
:103B400000F0BD80042B00F0D580012B08D1D8F8FF
:103B50006832B5F906209B6DB5F9041038469847D0
:103B600008F13C08D04505F1200507F13C07E4D1F8
:103B7000434AB6F92C3011788B4204F1040516D073
:103B8000DBB21370502284F8342184F8082184F8C1
:103B9000DC20002B00F0B980FF22012B84F83421B7
:103BA00005D0022B84F8082118BF84F8DC20B388E4
:103BB0002B4A052104F508700FF08AF828460CF00E
:103BC0006DFD03B0BDE8F08F4E2B7FF411AF494679
:103BD000264800F099FA0E2301A92846ADF80430D2
:103BE00008F07DFE04E74E2B7FF425AF1F4800212F
:103BF00000F08AFA0E2301A92846ADF8043008F037
:103C00006EFE18E74E2B7FF433AF1848002100F00A
:103C10007DFA2DE74E2B7FF447AF1448002100F0CA
:103C200075FA41E72B68B7F906209B6DB7F90410C8
:103C3000284698472946484605F092FB0121384618
:103C400000F0A6F951E72946484605F0CAFB0321D2
:103C5000F5E700BFBA22002074270020B922002017
:103C6000524B0208B4220020D41F00207C270020E1
:103C7000CC1F00205C26002044250020C422002008
:103C800014000020B0220020D01F0020C81F0020F8
:103C90002B68B7F906209B6DB7F9041028469847A2
:103CA0002946484605F05CFB0121384600F070F9D2
:103CB00037E72946484605F094FB0321F5E7D8F895
:103CC0006832B5F906209B6DB5F90410384698475F
:103CD000D8F86832D3F864B001231A460021384678
:103CE000D8473946484605F03BFB0121284600F0FD
:103CF0004FF935E7D8F8683238469B6E9847394611
:103D0000484605F06EFB0321F0E7034B01222846ED
:103D10001A700CF0C3FC4AE7B922002010B5114C10
:103D20008AB0FEF791FF206803F0AAF92022002153
:103D300002A81FF068FA0C4B01934FF4804218233D
:103D4000CDE90623002101AA084803F055F9084AE5
:103D5000206000231370074A1370074A13700AB0DB
:103D600010BD00BFB4220020554B0208A542000838
:103D7000BA220020B9220020B02200207047043867
:103D80007047704710B5102104461EF0F9F8204620
:103D900010BDA0F10400F5E700228260024A026033
:103DA00018324260C1607047345402087047000006
:103DB00010B5034B03600446FFF71BFA204610BD05
:103DC0005C54020810B50446FFF7F2FF2046F021CC
:103DD0001EF0D6F8204610BD10B50446FFF73EFA97
:103DE000014B2360204610BD5C540208FFF702BA65
:103DF000002202607047704710B5034B0360044611
:103E000000F0B1F8204610BD9054020810B50446E9
:103E1000FFF7F2FF20461C211EF0B2F8204610BD2D
:103E200010B5044600F0AAF8064B23604FF4C8739F
:103E3000A3614FF018110023C4E90213024B236160
:103E4000204610BD9054020803009001B0F90830DC
:103E500010B5B0F904405B429C420BDBF02C09DC4E
:103E6000B0F90A30B0F906205B429A4202DBB2F5A3
:103E7000A07F05DD0423038283694382002010BDF7
:103E8000438A591A09B200294182F7DC83891C440C
:103E9000C38984801A448369C28043820120EEE78B
:103EA00010B5034B0360044600F05DF8204610BDDA
:103EB000A454020810B50446FFF7F2FF2046202163
:103EC0001EF05EF8204610BD10B5044600F056F80E
:103ED000084B23604FF4167246F2A813C4E9062378
:103EE0004FF020110022C4E90212034A2261A3828A
:103EF000204610BDA454020803005802B0F908304F
:103F0000B0F904205B429A4210B508DBF02A06DCC7
:103F1000B0F90A30B0F906405B429C4207DA04234C
:103F20000382C369838283694382002010BD438A70
:103F3000591A09B200294182F7DC83891A44C389DE
:103F400082801C448369C48043820120EEE7838A17
:103F5000591A09B20029D8BFC3698182DABF8382A6
:103F600001200020704770470020704710B51821CD
:103F700004461EF005F8204610BD0000034A02600A
:103F8000032202824FF0201282607047B854020868
:103F9000018270478180C28070478181C2817047F1
:103FA000B0F90420B0F9083010B5B1F90440134459
:103FB000A34215DDB1F9083023449A4210DAB0F972
:103FC0000630B0F90A20B1F906401A44A24207DDD2
:103FD000B1F90A2022449342ACBF0020012010BD59
:103FE0000020FCE710B5054B0360002304468380E6
:103FF000083000F033F8204610BD00BFCC54020852
:10400000838819448180704710B5044B044640F8FA
:10401000083B00F00FF8204610BD00BFCC5402084A
:1040200010B50446FFF7F0FF204630211DF0A8FF31
:10403000204610BD10B5034B03600446FFF793FF05
:10404000204610BDDC54020810B50446FFF7F2FF0D
:10405000204628211DF094FF204610BD10B50446CF
:10406000FFF78CFF03210A480A4B2162A1844FF01D
:104070001C11C4E9010142F21072236000214FF4C7
:10408000C873C4E90632E160A2826382204610BD93
:104090006800DC00DC540208438A591A09B200297E
:1040A00041821FDC82888389C1891A44C38812B285
:1040B0000B441BB281698280002AC380418207DAE7
:1040C00000228280002B07DA0023C3800120704782
:1040D000D02AF7DDD022F4E7B3F5907FF6DD4FF478
:1040E0009073F2E700207047838A591A09B20029B9
:1040F000D8BFC3698182DABF838201200020704764
:10410000838C19448184704781817047C1817047D5
:104110002DE9F047DFF890A0224CDAF80030DFF804
:104120008C80DFF88C901B1A0546CAF800301426E4
:10413000B4F91030032B09D029462046FFF7DEFEE4
:10414000013E04F12004F3D1BDE8F087DAF8003035
:10415000002BF5DCD8F8003003F00102002A4FF6FE
:10416000E0714FF6FF770CBFF0210127032B94BFBE
:1041700019F803200022022BD4BF0133002320466C
:10418000C8F80030FFF706FF002239462046FFF747
:1041900004FF02212046FFF7FBFE42F21073CAF82B
:1041A0000030CDE7C422002018000020C0220020EB
:1041B000E85402082DE9F843014606461348144C1A
:1041C000DFF85080DFF85090FFF78EFF04F58C7712
:1041D0000546B4F91030032B08D031462046FFF7CE
:1041E00035FE1C34BC42F4D1BDE8F88365B1B8F8A3
:1041F0000020B9F80010103A204692B2FFF7CAFE2C
:1042000002212046FFF7C4FE0025EAE77C270020B4
:104210005C260020BC220020BE2200202DE9F041B7
:104220001E4C054600274FF01C08B4F91030012B36
:1042300010D129462046FFF78AFE58B1184A0023BC
:104240001646B2F91010032919D001330A2B02F1D6
:104250001C02F6D10137142F04F12004E5D1104CD3
:104260000A26B4F91030012B03D129462046FFF766
:10427000EDFD013E04F11C04F3D1BDE8F081E288BC
:10428000A18808FB03661032304692B2FFF782FE27
:1042900002213046FFF77CFEDCE700BFC42200208D
:1042A000442500202DE9F74FDFF8D8B100246E4BEC
:1042B0004FF6CE72E61811463046FFF76BFE04EB60
:1042C0000B054FF6CE7211462846FFF763FE4FF6F8
:1042D000FB7200213046FFF760FE052200212846D0
:1042E000FFF75BFE03213046FFF752FE1C3403212B
:1042F0002846FFF74DFEB4F58C7FD8D1DFF88881D2
:10430000002544464FF6CE7211462046FFF742FE86
:10431000013520460321FFF73BFE142D04F1200454
:10432000F0D1524F0026524B1B780136002B40F043
:104330009880022E4F4C14BF18461E464E4BA28941
:104340001A804E4BE2891A8008BF01203870FFF7AF
:10435000DFFE397804F10800FFF79EFE3878FFF79A
:1043600029FF3878FFF75AFF45464FF0000904F15E
:10437000080AB5F91030012B60D151462846FFF7E5
:104380000FFE00285AD03E484FF0FF31FFF7B8FE2D
:1043900004212846FFF7FCFD39484FF4827268215A
:1043A000FFF7F8FD45464FF01409B5F91030012B21
:1043B0001AD1DFF8B4A00A22BAF91010012945D1A8
:1043C000514628460192FFF7EBFD019A00283DD0A7
:1043D00004212846FFF7DCFD04215046FFF7D8FDF5
:1043E00024480521FFF70CFEB9F1010905F120056C
:1043F000DBD123495D464FF00A09B5F91030012B96
:1044000029D12846FFF7CCFD1D4920B31C484FF0A9
:10441000FF31FFF775FE04212846FFF7B9FD184864
:104420004FF482726821FFF7B5FDB4F92C30002BF0
:104430003FF779AF0E4A0123137074E709F10109C0
:10444000B9F1140F05F1200593D1ABE7013A0AF158
:104450001C0AB1D1C8E7B9F1010905F11C05CCD19D
:10446000E3E703B0BDE8F08F5C260020B82200200F
:10447000BA22002074270020BE220020BC22002087
:104480007C27002044250020C422002038B50F4896
:104490000F4DFFF7A7FD002428191C34FFF7C0FCBF
:1044A000B4F58C7FF8D10B4D002428191C34FFF78C
:1044B000B7FCB4F58C7FF8D1074D002428192034BF
:1044C000FFF702FDB4F5207FF8D138BD7427002036
:1044D0005C26002044250020C4220020164838B560
:1044E0001524013CA0F1200512D114480B24013CF5
:1044F000A0F11C0514D112480B24013CA0F11C05AD
:1045000015D0D0F8FC30FC305B6898472846F4E7BB
:10451000D5F8803200F518705B6898472846E0E7C8
:10452000D5F81831FC305B6898472846DFE7BDE8CE
:1045300038400448FFF768BDC4220020442500200D
:104540005C26002074270020F02070474FF4A070F4
:1045500070472920FDF730BC2820FDF72DBC08B599
:10456000FDF7FEFBCA20FDF727FCC320FDF708FC82
:104570000820FDF705FC5020FDF702FCCF20FDF7D9
:104580001BFC0020FDF7FCFBC120FDF7F9FB3020F0
:10459000FDF7F6FBED20FDF70FFC6420FDF7F0FBC7
:1045A0000320FDF7EDFB1220FDF7EAFB8120FDF76C
:1045B000E7FBE820FDF700FC8520FDF7E1FB00208C
:1045C000FDF7DEFB7820FDF7DBFBCB20FDF7F4FBEE
:1045D0003920FDF7D5FB2C20FDF7D2FB0020FDF79D
:1045E000CFFB3420FDF7CCFB0220FDF7C9FBF72001
:1045F000FDF7E2FB2020FDF7C3FBEA20FDF7DCFB23
:104600000020FDF7BDFB0020FDF7BAFBB120FDF750
:10461000D3FB0020FDF7B4FB1B20FDF7B1FBB62058
:10462000FDF7CAFB0A20FDF7ABFBA220FDF7A8FBB4
:10463000C020FDF7C1FB1020FDF7A2FBC120FDF754
:10464000BBFB1020FDF79CFBC520FDF7B5FB45200B
:10465000FDF796FB1520FDF793FBC720FDF7ACFB9C
:104660009020FDF78DFB3620FDF7A6FBC820FDF757
:1046700087FBF220FDF7A0FB0020FDF781FBB020B7
:10468000FDF79AFBC220FDF77BFBB620FDF794FBFC
:104690000A20FDF775FBA720FDF772FB2720FDF729
:1046A0006FFB0420FDF76CFB2A20FDF785FB002043
:1046B000FDF766FB0020FDF763FB0020FDF760FBC4
:1046C000EF20FDF75DFB2B20FDF776FB0020FDF7CB
:1046D00057FB0020FDF754FB0120FDF751FB3F2065
:1046E000FDF74EFBF620FDF767FB0120FDF748FBC9
:1046F0000020FDF745FB0620FDF742FB2C20FDF7CF
:104700005BFBC820FDF7A6FB2620FDF755FB01202B
:10471000FDF736FBE020FDF74FFB0F20FDF730FBE8
:104720002920FDF72DFB2420FDF72AFB0C20FDF7A7
:1047300027FB0E20FDF724FB0920FDF721FB4E206F
:10474000FDF71EFB7820FDF71BFB3C20FDF718FB57
:104750000920FDF715FB1320FDF712FB0520FDF7DF
:104760000FFB1720FDF70CFB1120FDF709FB0020C4
:10477000FDF706FBE120FDF71FFB0020FDF700FB26
:104780001620FDF7FDFA1B20FDF7FAFA0420FDF7CD
:10479000F7FA1120FDF7F4FA0720FDF7F1FA3120BE
:1047A000FDF7EEFA3320FDF7EBFA4220FDF7E8FAC9
:1047B0000520FDF7E5FA0C20FDF7E2FA0A20FDF7E7
:1047C000DFFA2820FDF7DCFA2F20FDF7D9FA0F20B9
:1047D000FDF7D6FA1120FDF7EFFAC820FDF73AFBF6
:1047E0002920FDF7E9FABDE808402C20FDF7E4BADE
:1047F00008B5FDF7B5FA0321D320FDF7F9FA80B229
:1048000008BD10B5C4B2022203212046FDF75EFAAE
:104810000A20FDF7A3FA204600220321FDF756FAED
:10482000BDE810400220FDF799BA38B50446E4B25D
:10483000FDF74AFA00212046FDF760FA01210546FE
:104840002046FDF75BFA40EA052080B238BD10B57E
:10485000C4B240212046FDF751FA030607D54C218A
:104860002046FDF74BFA003818BF012010BD012289
:104870004B212046FDF72AFA204600224B21FDF766
:1048800025FA0020F2E773B50423C4B20E4615469C
:10489000D7210DEB03022046FDF74AFA019B1BBA14
:1048A0001A0DC3F30B23328020462B8001224B21AB
:1048B000FDF70CFA00224B212046FDF707FA02B063
:1048C00070BD000010B50A4A1378984204460DD016
:1048D000517888420AD00BB141B90123D454FDF775
:1048E000F3F92046BDE81040FFF78BBF10BD00BFB5
:1048F000A427002010B5C4B209212046FDF7FEF917
:1049000040F00102D2B220460921BDE81040FDF777
:10491000DDB910B5C4B209212046FDF7EFF9092130
:1049200000F0FE022046BDE81040FDF7CFB938B5D3
:10493000C4B20D4620460A21FDF7E0F940EA05021F
:10494000D2B220460A21BDE83840FDF7BFB910B504
:104950000446FDF7BAF920461F21FFF7E8FF20467D
:10496000BDE81040FFF7C6BF38B5C4B20D462046BB
:104970000A21FDF7C3F920EA0502D2B220460A2136
:10498000BDE83840FDF7A2B910B50446FFF7C1FFF6
:1049900020461F21BDE81040FFF7E6BF10B5C0B2AA
:1049A0000C460B21FDF7AAF9204010BD1F21FFF78F
:1049B000F5BF0A46C0B20B21FDF788B91F21FFF7EA
:1049C000F8BF38B5C4B20D4620461721FDF796F959
:1049D00020EA0502D2B220461721BDE83840FDF793
:1049E00075B970B5C4B2064604212046FDF786F9B4
:1049F000042100F0FB0205462046FDF767F930462A
:104A0000F021FFF7DEFF05F0F80220460421FDF754
:104A10005DF9492220212046FDF758F90220FDF7D3
:104A20009DF9204601222121FDF750F920469A22C6
:104A30004121FDF74BF9204601224A21FDF746F9B5
:104A4000204601224B21FDF741F9204600224B214F
:104A5000FDF73CF9204601225621FDF737F92046A3
:104A600001225821FDF732F9204601224021FDF7AD
:104A70002DF92046FF220B21FDF728F9BDE87040F3
:104A80000220FDF76BB90000054BD3F8882042F4F3
:104A90007002C3F888204FF000629A60704700BF30
:104AA00000ED00E008B50B4B1A6842F400721A6082
:104AB0001A6842F480621A601A6842F480721A60BE
:104AC000032000F02FF80020FDF706FCFDF7D0F9D9
:104AD000002008BD003C0240034A044B11681B78CB
:104AE0000B441360704700BFA827002080000020FF
:104AF000014B1868704700BFA827002038B504464E
:104B0000FFF7F6FF631C1CBF054B1B78054618BF5B
:104B1000E418FFF7EDFF431BA342FAD338BD00BFF3
:104B2000800000200749CA6822F4E06203021204F0
:104B300003F4E063120C134343F0BF6343F4003308
:104B4000CB60704700ED00E0164B30B5DC68C4F375
:104B50000224C4F10703251D042B28BF0423062DBE
:104B60004FF0FF358CBF033C002405FA03F321EA24
:104B70000303A54022EA0502A340002843EA0203FA
:104B8000ACBF00F16040084A4FEA0313B8BF00F021
:104B90000F00DBB2AABF00F56140135480F8003368
:104BA00030BD00BF00ED00E014ED00E0002807DBA1
:104BB000044A4109012300F01F00834042F82130DC
:104BC000704700BF00E100E010B5044650B14379E2
:104BD00003F0FF0213B90271FDF76AF90123637153
:104BE000002010BD0120FCE710B5044620B390F86A
:104BF000393003F0FF021BB980F83820FDF770F957
:104C0000022384F83930236861681A6822F440323C
:104C10000A431A605A6BA16822F007020A435A63DA
:104C20001A6CE1686FF30D020A431A640020012335
:104C3000E06384F8393010BD0120FCE7704770470D
:104C4000036870B55E681D68F207044614D5E9056F
:104C500012D51A6822F480721A60C26B42F0010207
:104C6000C26301229A60042380F83930002380F85F
:104C70003830436903B19847B20616D5AB0414D552
:104C800023681A6822F400521A6020229A60E36BAB
:104C900043F00203E363042384F83930002384F8EB
:104CA000383063690BB120469847300716D529057F
:104CB00014D523681A6822F400621A6008229A60E8
:104CC000E36B43F00403E363042384F839300023E7
:104CD00084F8383063690BB12046984772070BD5CA
:104CE0006B0509D523681A6822F480621A600422D1
:104CF0009A602046FFF7A2FFB00714D5A90512D588
:104D000023681A6822F400721A6002229A60E36B28
:104D1000E363012384F83930002384F838302369B1
:104D20000BB120469847F20613D5EB0411D5236842
:104D30001A6822F480521A6010229A60E36BE363CF
:104D4000012384F83930002384F838302046FFF7F7
:104D500076FF70BDF0B590F83820012A03464FF079
:104D600002002BD0012283F8382083F8390003EBAE
:104D70000112D2E90740556A174F44EA0040093C46
:104D8000012C9CBF05F07F4210434FEA01161A68C0
:104D900088BF40EA056091B9516A394001435162C8
:104DA000012C9969916103D8596A21F07F41916280
:104DB0000122002083F8392083F83800F0BDD16942
:104DC00039400143D1619919012C896911619CBF56
:104DD00025F07F451562EBE7F0FFFC002DE9F74F6A
:104DE000DFF8BC916C4A00230D6801249C4004EA62
:104DF0000506AC4340F0B7804D68032705F0030477
:104E00004FEA430807FA08FC671E012F6FEA0C0CF3
:104E100034D8876807EA0C0ECF6807FA08F747EA24
:104E20000E078760476827EA060EC5F300179F4004
:104E300047EA0E074760C76807EA0C0E8F6807FA53
:104E400008F747EA0E07022CC76019D14FEAD30AC8
:104E500000EB8A0A03F0070BDAF820704FEA8B0B9D
:104E60004FF00F0E0EFA0BFE27EA0E0E0F6907FA2F
:104E70000BF747EA0E07CAF8207001E0032CDAD1DD
:104E8000076804FA08F407EA0C073C4315F4403FAE
:104E9000046068D000240194D9F8444044F480446C
:104EA000C9F84440D9F8444023F0030707F180478C
:104EB00004F4804407F59C37019403F0030C019C33
:104EC000D7F808E04FEA8C0C0F2404FA0CF42EEA11
:104ED000040E324CA0424DD004F58064A0424BD069
:104EE00004F58064A04249D004F58064A04247D014
:104EF00004F58064A04245D004F58064A04243D00C
:104F000004F58064A04241D004F58064A0423FD003
:104F100004F58064A0423DD004F58064A04214BF33
:104F20000A24092404FA0CF444EA0E04BC609468D0
:104F3000F74315F4801F0CBF3C4034439460D468A1
:104F400015F4001F0CBF3C403443D460546815F482
:104F5000003F0CBF3C40344354601468ED0354BF21
:104F60003C40344314600133102B7FF43DAF03B059
:104F7000BDE8F08F0024D5E70124D3E70224D1E770
:104F80000324CFE70424CDE70524CBE70624C9E7B3
:104F90000724C7E70824C5E7003C014000000240A1
:104FA000003802400369194214BF012000207047F5
:104FB0000AB1816170470904FBE7436901EA030212
:104FC00021EA030141EA02418161704701684B69AE
:104FD00013F480634FF0000210D06FF480634B61D4
:104FE0002023026380F83D3080F83E20036C80F877
:104FF0003C2043F0040303640120704718467047C7
:105000002DE9F84606460F4691461D464FEA114ADD
:105010003368BAF1010F0CBF5C699C6927EA04048C
:10502000A4B2B4FA84F46409A14501D0002025E0BB
:105030006A1CEED0FFF75CFD089BC01AA84201D89D
:10504000002DE5D13368BAF1010F0CBF5B699B6994
:1050500027EA03039BB2B3FA83F35B099945D7D1DF
:1050600000232022336386F83D2086F83E30326CE0
:1050700086F83C3042F0200232640120BDE8F88618
:105080002DE9F04104460F461646984625686869A2
:1050900027EA000080B2C0B16B695A0517D52B68AA
:1050A00043F400732B606FF480636B612022002354
:1050B000236384F83D2084F83E30236C43F00403DE
:1050C0002364002384F83C300120BDE8F081731C88
:1050D000DDD0FFF70DFDA0EB0800B04201D8002E97
:1050E000D4D123685A6927EA020292B2002ACDD0AD
:1050F00000232022236384F83D2084F83E30236C73
:105100001343DDE770B504460D46164623685B6918
:105110001B0601D500201EE02046FFF757FFC8B947
:105120006A1CF3D0FFF7E4FC801BA84201D8002DD5
:10513000ECD123685B6913F08003E7D1202223635D
:1051400084F83D2084F83E30226C84F83C3042F0F4
:1051500020022264012070BD2DE9F043154602684B
:1051600085B0DDE90C789946136843F480731360C9
:105170000E463B46CDF8008000224FF00111044658
:10518000FFF73EFF236838B11B68DB0502D54FF4FB
:1051900000732364032620E006F0FE061E611A4910
:1051A00043463A462046FFF76BFFA8B923680390B1
:1051B0005A6903929B690393424639462046039BF2
:1051C000FFF7A0FF064660B1236C042B01BF2268E5
:1051D000136843F4007313600126304605B0BDE840
:1051E000F083B9F1010F236802D1EDB21D61F4E73C
:1051F0002A0A1A61394642462046FFF783FF0028F3
:10520000E2D12368F1E700BF020001002DE9FF476A
:105210009A46036815461A6842F480621A601A6852
:10522000DDE90C7842F480721A600E463B46CDF8F8
:10523000008000224FF001110446FFF7E1FE2368D1
:1052400038B11B68DB0544BF4FF4007323640320AF
:1052500021E05FFA86F906F0FE061E612B494346FF
:105260003A462046FFF70CFFA0B9236803905A691D
:1052700003929B690393424639462046039BFFF7FE
:1052800041FF58B1236C042B01BF2268136843F41B
:1052900000731360012004B0BDE8F087BAF1010F7C
:1052A00023681AD1EDB242461D6139462046FFF708
:1052B00029FF02460028E5D121680B6843F480737A
:1052C0000B602046CDF800803B464FF00111FFF700
:1052D00097FE226860B11368B4E72A0A1A6139465A
:1052E00042462046FFF70EFF0028CBD12368D9E7BE
:1052F00049F001031361054943463A462046FFF74A
:10530000BFFE003818BF0120C5E700BF0200010042
:1053100070B504460D46164623685B695B0701D5E8
:1053200000201EE02046FFF751FEC8B96A1CF3D0EA
:10533000FFF7DEFB801BA84201D8002DECD12368CB
:105340005B6913F00403E7D12022236384F83D2036
:1053500084F83E30226C84F83C3042F02002226413
:10536000012070BD70B504460D46164621684B6994
:1053700013F0400301D0002011E04A69D2060FD596
:105380006FF010024A612022236384F83D2084F8E4
:105390003E30236C2364002384F83C30012070BD30
:1053A000FFF7A6FB801BA84201D8002DDED12368A1
:1053B0005B6913F04003D9D12022236384F83D2098
:1053C00084F83E30236C1343E4E7000070B50446D4
:1053D00008B9012070BD90F83D3003F0FF021BB901
:1053E00080F83C20FCF79EFD242384F83D302368A0
:1053F0001A6822F001021A601A6842F400421A6028
:105400001A6822F400421A6000F0A8FE3F4B65685B
:105410009D4294BF3E4B3F4B98428CBF00230123DB
:10542000002BD6D12268394E51683B4BB0FBF3F3C9
:1054300021F03F011943B542516088BF4FF4967681
:10544000116A88BF734321F03F0184BF4FF47A761D
:10545000B3FBF6F301330B431362D169431E2B48B0
:1054600021F44F41854221F0FF0132D86D0040F612
:10547000FC70B3FBF5F30133034242D0C3F30B03DB
:105480001943D161D4E907301168034321F0C00109
:105490000B4313609168D4E9030321F403410343F0
:1054A00021F0FF010B439360D4E90530D168034339
:1054B00021F0FF010B43D360136843F00103136035
:1054C00000202023206484F83D30206384F83E00CF
:1054D00080E7A06850B905EB4505B3FBF5F3013350
:1054E000C3F30B037BB143F40043C9E719206843BE
:1054F000B3FBF0F30133C3F30B0323B143F4404395
:10550000BEE70423BCE70123BAE700BFA086010081
:105510007F841E00FF083D0040420F002DE9F74345
:10552000044699460C9E0F469046FFF7E1FA94F820
:105530003D30202B054603D0022003B0BDE8F083A8
:1055400000903C49192301222046FFF759FD00280D
:10555000F2D194F83C30012BEED02068012384F87E
:105560003C300368D9075EBF036843F00103036062
:10557000036823F400630360212384F83D30402353
:1055800084F83E30002323640A9B6362BDF82C300C
:105590006385638D2385284BE3624246CDE9006530
:1055A0004B4639462046FFF7D7FD00282AD0012078
:1055B000C3E7FFF7A7FD40B1236C042B01BF2268AE
:1055C000136843F400731360F1E7636A27681A46AF
:1055D00012F8011B39616262628D218D013A92B22B
:1055E00062857A69481E80B2520720850AD548B183
:1055F0005A783A6102336362638D013B02399BB290
:1056000021856385238D2A4631462046002BD0D143
:10561000FFF77EFE0028CFD12268136843F40073A1
:105620001360202384F83D3084F83C0084F83E0069
:1056300083E700BF020010000000FFFF2DE9F043E8
:10564000044687B09946109F0D469046FFF750FAE2
:1056500094F83D30202B064604D00225284607B09A
:10566000BDE8F08300907A49192301222046FFF714
:10567000C7FC0028F1D194F83C30012BEDD0206814
:10568000012384F83C300368DB075EBF036843F006
:1056900001030360036823F400630360222384F89A
:1056A0003D30402384F83E30002323640E9B636228
:1056B000BDF83C306385638D2385664BE3622946E4
:1056C000CDE900764B4642462046FFF79FFD054652
:1056D00008B10125C2E7228D2368B2B902905A6948
:1056E00002929A690292029A1A6842F400721A604F
:1056F000DFF86481238D002B2CD1202284F83D20FB
:1057000084F83C3084F83E30A8E7012A0AD11A68B0
:1057100022F480621A6003905A6903929A69039294
:10572000039AE1E7022A0ED11A6822F480621A6015
:105730001A6842F400621A6004905A6904929B69E4
:105740000493049BD4E705905A6905929B690593DD
:10575000059BCDE7032B56D8012B15D13246394690
:105760002046FFF7FFFD0028B3D123681A69636A5A
:105770001A70636A01336362238D013B2385638D55
:10578000013B9BB26385B5E7022B00963B464FF089
:1057900000024146204619D1FFF732FC002898D17B
:1057A00023681A6842F400721A601A69636A1A70F0
:1057B000626A531C6362238D013B2385638D013B29
:1057C0009BB2638523681B695370D2E7FFF718FC0F
:1057D000024600287FF47DAF2368196821F48061B8
:1057E00019601969636A1970636A01336362238DF2
:1057F000013B2385638D013B9BB263854146009647
:105800003B462046C8E7324639462046FFF7AAFD08
:1058100000287FF45EAF23681A69636A1A70628D8C
:10582000616A013A92B24B1C628522686362238DE1
:105830005069013B9BB2400723857FF55BAF032B8B
:1058400002BF136823F48063136013694B7090E701
:10585000020010000000FFFF0400010010B590F8E6
:105860003D30202BDCB216D1242380F83D30036874
:105870001A6822F001021A605A6A22F010025A6273
:105880005A6A114359621A6842F001021A6080F89C
:105890003D40002010BD0220FCE730B590F83D30BF
:1058A000202BDCB216D10268242380F83D30136827
:1058B00023F001031360556A4FF6F0732B400B433E
:1058C0009BB25362136843F00103136080F83D40BC
:1058D000002030BD0220FCE70068D1F800C0D201F2
:1058E000843283182DE9F043C6685D684C68D1F8AE
:1058F000189005F470455D60C5680CF10107C5F3AB
:105900000B45C6F30B4626443D4445EA06455D601B
:10591000C668CD68C6F30A062E449D6805F4704536
:105920009D60C7688D68C7F30A0701353D4445EAA5
:1059300006459D601D690E6925F007051D614FF044
:10594000000E1E6191F832709D6991F83180C3F8A4
:1059500018E091F8305045EA096545EA082545EA1E
:1059600007459D615D6925F0FF055D614D695D61DC
:10597000DD6925F4E06525F00705DD61D1E907570C
:105980003D43DD619D6A4D6AC3F828E0072E9D62A4
:105990009CBF0E4DAE5DDD6A05F0E025DD6288BF7F
:1059A00001268D6AC96AA4EB0C0474437543033461
:1059B00044EA0544DC621C6B6FF30A041C63196340
:1059C000835843F001038350BDE8F0830455020877
:1059D00038B50446002863D090F8A13003F0FF02E8
:1059E0001BB980F8A020FCF7F9FA022384F8A13053
:1059F00023689A6922F070429A61D4E90120024337
:105A0000E06899690243206902430A439A619A68EF
:105A1000244960690A409A609A6842EA0042A06993
:105A200002439A60DA68E0690A40DA60DA6842EABA
:105A30000042206A0243DA601A69606A0A401A6109
:105A40001A6942EA0042A06A02431A615A690A408E
:105A50005A615A69E16A42EA0142216B0A435A617A
:105A6000DA6A94F8350094F8361002F07F42DA6270
:105A7000DD6A94F834202A4342EA002242EA0142D5
:105A8000DA625A6B42F006025A639A6942F00102E6
:105A90009A6100200123C4F8A40084F8A13038BD25
:105AA0000120FCE700F800F070477047036870B50C
:105AB0009E6B5D6B7207044614D5690712D55A6B4D
:105AC00022F004025A630422DA63D0F8A43043F0CF
:105AD0000103C0F8A430002380F8A12080F8A03092
